:100000000C942A000C943C000C943C000C943C0092
:100010000C9455000C943C000C943C000C943C0057
:100020000C943C000C943C000C943C000C943C0060
:100030000C943C000C943C000C943C000C943C0050
:100040000C943C000C943C000C943C000C943C0040
:100050000C943C0011241FBECFE5D8E0DEBFCDBF1D
:1000600020E0A0E6B0E001C01D92A436B207E1F79F
:100070000E9482000C9492000C9400008A9A15BC95
:100080000895109261001092600090E0880F991F0F
:10009000909363008093620014BC8CE783BD89B7A2
:1000A000806889BF8CE085BD08951F921FB61F929E
:1000B00011242F933F938F939F9382B394E08927CA
:1000C00082BB8091600090916100019690936100E5
:1000D0008093600020916000309161008091620007
:1000E000909163002817390728F015BC89B78F77DE
:1000F00089BF92989F918F913F912F911F901FBE22
:100100001F9018950E943E00789489E10E9441005A
:100110002FEF83ED90E3215080409040E1F700C045
:080120000000F3CFF894FFCFBB
:00000001FF
