:100000000C942A000C943C000C943C000C943C0092
:100010000C944F000C943C000C943C000C943C005D
:100020000C943C000C943C000C943C000C943C0060
:100030000C943C000C943C000C943C000C943C0050
:100040000C943C000C943C000C943C000C943C0040
:100050000C943C0011241FBECFE5D8E0DEBFCDBF1D
:1000600020E0A0E6B0E001C01D92A236B207E1F7A1
:100070000E946F000C947F000C9400008A9A15BCBB
:10008000089510926000880F8093610014BC8CE783
:1000900083BD89B7806889BF8CE085BD08951F92B4
:1000A0001FB61F9211248F939F9382B394E08927E8
:1000B00082BB809160008F5F8093600090916000B0
:1000C00080916100981728F015BC89B78F7789BF98
:1000D00092989F918F911F901FBE1F9018950E941C
:1000E0003E00789485E00E9441002FEF83ED90E37D
:1000F000215080409040E1F700C00000F3CFF89419
:02010000FFCF2F
:00000001FF
